:020000040800F2
:10000000380500209D0100087F190008ED14000844
:100010007D190008E9020008F71D00080000000033
:10002000000000000000000000000000731B00083A
:10003000EB02000800000000711B0008751B00089F
:10004000DD010008DD010008DD010008DD01000818
:10005000DD010008DD010008DD010008DD01000808
:10006000DD01000881050008DD010008DD01000850
:10007000DD010008DD010008DD010008DD010008E8
:10008000DD010008DD010008DD010008DD010008D8
:10009000DD010008DD010008DD010008DD010008C8
:1000A000DD010008DD010008DD010008DD010008B8
:1000B000DD010008DD010008DD010008DD010008A8
:1000C000DD010008DD010008DD010008DD01000898
:1000D000DD010008DD010008DD010008DD01000888
:1000E000DD010008DD010008DD010008DD01000878
:1000F000DD010008DD010008DD010008DD01000868
:10010000DD010008DD010008DD010008DD01000857
:10011000DD010008DD010008DD010008DD01000847
:10012000DD010008DD010008DD010008DD01000837
:10013000DD010008DD010008DD010008DD01000827
:10014000DD010008DD010008DD010008DD01000817
:10015000DD010008DD010008DD010008DD01000807
:10016000DD010008DD010008DD010008DD010008F7
:10017000DD010008DD010008DD01000800000000CD
:10018000DD010008DD010008DFF80CD000F096F872
:1001900000480047111F000838050020104880471C
:1001A00010480047FEE7FEE71EF0040F00D004D120
:1001B0002DE9F00F00B5684606E008BFEFF30980AF
:1001C00020E9F00F40F804ED00F090F8FEE7FEE7BC
:1001D000FEE7FEE7FEE7FEE7FEE7FEE7FEE70000DC
:1001E000191C0008890100082DE9F05F0546002070
:1001F00092469B4688460646814640241BE0284698
:1002000041464746224600F048F853465A46C01A2F
:10021000914110D311461846224600F02FF82D1AAE
:1002200067EB01084F4622460120002100F026F826
:1002300017EB00094E41201EA4F10104DFDC484603
:1002400031462A464346BDE8F09FD2B201E000F8AD
:10025000012B491EFBD270470022F6E710B513466A
:100260000A4604461946FFF7F0FF204610BD421C1F
:1002700010F8011B0029FBD1801A7047202A04DBEB
:10028000203A00FA02F1002070479140C2F12003A9
:1002900020FA03F3194390407047202A04DB203AE8
:1002A00021FA02F00021704721FA02F3D040C2F196
:1002B000200291400843194670470000064C074D44
:1002C00006E0E06840F0010394E807009847103426
:1002D000AC42F6D3FFF75CFF94280008B42800086E
:1002E00008B50120009008BDFEE7704710B5044630
:1002F0000DA100F06DF80FA001F0B4FE11491248F5
:1003000000F038F811A001F0ADFE1449144800F0D7
:1003100031F814A001F0A6FE04F14400BDE810403D
:100320004FF4806100F026B86D61696E5F74687289
:100330006561640044617461207365676D656E7406
:100340003A0A000028000000000000205A492073EB
:1003500065676D656E743A0A0000000010050000C4
:1003600028000020537461636B207365676D656EB0
:10037000743A0A0070B505460E4629460FA001F0F2
:1003800047FE31460FA001F043FE0FA001F06AFEC8
:10039000002409E0286801F04DFE241D2D1D2007D2
:1003A00009D00AA001F05EFEB442F3D3BDE870406C
:1003B00005A001F057BE04A0F4E700006D656D4094
:1003C000000000002C0000000A00000020000000D7
:1003D00070B504460D4641A001F044FE284601F0E8
:1003E00041FE41A001F03EFE40A0616A01F010FE16
:1003F0003DA001F037FE3FA0A16A01F009FE3AA03E
:1004000001F030FE3DA0E16A01F002FE36A001F0ED
:1004100029FE3CA0216B01F0FBFD33A001F022FE80
:100420003AA0616801F0F4FD2FA001F01BFE39A095
:10043000A16801F0EDFD2CA001F014FE37A0E168E9
:1004400001F0E6FD28A001F00DFE36A0216901F0C3
:10045000DFFD25A001F006FE34A0616901F0D8FDA2
:1004600021A001F0FFFD33A0A16901F0D1FD1EA084
:1004700001F0F8FD31A0E16901F0CAFD1AA001F018
:10048000F1FD30A0216A01F0C3FD17A001F0EAFDE3
:100490002EA0616B01F0BCFD13A001F0E3FD04F19F
:1004A00044012CA001F0B4FD0FA001F0DBFD2CA055
:1004B000A16B01F0ADFD0CA001F0D4FD2BA0E16B10
:1004C00001F0A6FD08A001F0CDFD2BA0216C01F0EC
:1004D0009FFDBDE8704004A001F0C4BD526567698E
:1004E00073746572734000000A00000052303A20B5
:1004F0000000000052313A200000000052323A2041
:100500000000000052333A200000000052343A202C
:100510000000000052353A200000000052363A2018
:100520000000000052373A200000000052383A2004
:100530000000000052393A20000000005231303AE9
:10054000200000005231313A200000005231323A8E
:1005500020000000523133285350293A2000000077
:10056000523134284C52293A2000000052313528AB
:100570005043293A20000000785053523A2000009E
:10058000082000F017B800000248016841F010018F
:100590000160704714ED00E072B6FEE710B5082860
:1005A00004D100F015F902490A30086010BD0000BE
:1005B00004000020044910B50A68024202D0086015
:1005C000FFF7ECFF10BD0000143C01402DE9F84F8F
:1005D000DFF8BCA10022012503264FF00F090AF124
:1005E000040BAAF1040E00BF0B6805FA02F42340C5
:1005F000A34270D10F7907F00307012F01D0022F1A
:1006000016D187684FEA420806FA08FC27EA0C0769
:10061000D1F80CC00CFA08FC4CEA070CC0F808C072
:100620004768A7430C79C4F3001494403C434460EA
:100630000C79E443A4070AD0C4684FEA420C06FAD6
:100640000CF7BC438F6807FA0CF72743C7600C7997
:1006500004F00304022C12D1D40800EB840CDCF863
:1006600020405707FF0E09FA07F824EA0804D1F8DA
:10067000108008FA07F848EA0408CCF820800468DB
:100680004FEA420C06FA0CF7BC430F7907F0030758
:1006900007FA0CF7274307604C6814F4403F70D00A
:1006A0003C4C276847F480472760246822F0030702
:1006B00004F480440094384C07EB040CDCF8084840
:1006C00097074FEA177809FA08F7BC43334FB84247
:1006D00002D1002724E054E0314FB84201D1012774
:1006E0001EE0304FB84201D1022719E02E4FB84228
:1006F00001D1032714E02D4FB84201D104270FE0A8
:100700002B4FB84201D105270AE02A4FB84201D148
:10071000062705E0284FB84201D1072700E0082747
:1007200007FA08F72743CCF80878DAF8004057466C
:10073000D1F804C09C435FEACC2C00D51C433C603C
:10074000DBF800405F46D1F804C09C435FEA8C2C84
:1007500000D51C433C60DEF800407746D1F804C069
:100760009C435FEA8C3C00D51C433C60084F083F2B
:100770003C68D1F804C09C435FEACC3C00D51C43E4
:100780003C60521C102AFFF42FAFBDE8F88F000028
:10079000083C014044380240003001400000024063
:1007A0000004024000080240000C02400010024019
:1007B0000014024000180240001C0240006908407A
:1007C00000D0012070470AB1816170470904FBE73E
:1007D00001488068704700001000002070B50400D8
:1007E00025D094F83D00002520B984F83C502046DF
:1007F00000F0E6F9242084F83D002068016821F02B
:10080000010101602068016841F400410160206835
:10081000016821F40041016000F03CFB4D4A616831
:10082000914201D84C4900E04C49884201D2012054
:1008300070BD4B492368B0FBF1F15E6826F03F06BE
:100840000E435E606368934206D94FF49673594332
:100850004FF47A73B1FBF3F12368491C1E6A26F04A
:100860003F06314319626168914210D84900401E29
:10087000B0FBF1F2521CC2F30B02042A01D2042095
:1008800022E0B0FBF1F0401CC0F30B001CE0A268BA
:10089000F2B301EBC10303EB0116431EB3FBF6F306
:1008A0005B1C43F480431B0549D092B301EBC102AA
:1008B00002EB0111401EB0FBF1F0401CC0F30B0035
:1008C00040F4804040F400402168CA694CF6FF7350
:1008D0009A431043C861D4E90710014320680268B5
:1008E00022F0C00211430160D4E9030101432068F2
:1008F000826848F2FF339A4311438160D4E90501CD
:1009000008432168CA6822F0FF021043C86001E072
:100910000EE016E02068016841F0010101602564E5
:10092000202084F83D00256384F83E50002070BDEF
:1009300001EB4106431EB3FBF6F35B1CB3E701205A
:10094000C2E701EB4101401EB0FBF1F0401CC0F3D7
:100950000B00B7E7A086010080841E0000093D005F
:1009600040420F002DE9F84F1F4690468A46044644
:10097000DDF82890FFF72CFF054694F83D0020286D
:100980007FD11923012240492046009500F094FEB2
:10099000002876D194F83C00012872D0012084F818
:1009A0003C0020680168C90703D1016841F00101DA
:1009B00001602068016821F400610160212084F851
:1009C0003D00102084F83E0000262664C4F82480F0
:1009D0006785608D20852D48E0622B464A4651464A
:1009E000204600F09BFD90B9206841698069009025
:1009F00036E02A464946204600F004FF50B1206CFC
:100A0000042804D12068016841F4007101600120CC
:100A1000BDE8F88F606A216800780861606A401C50
:100A20006062618D491E6185218D491E89B22185D3
:100A300022685369DB435B070BD451B10078106126
:100A4000606A401C6062608D401E6085208D401E83
:100A500020852A464946204600F002FE0028CED1D5
:100A6000208D0028C5D154F83D0B016841F4007178
:100A70000160202004F81E09E67766770020C7E7AA
:100A8000FFE70220C4E70000020010000000FFFFA3
:100A90002DE9FF4F83B09A46DDE91197934604464E
:100AA000DDF84080FFF794FE054694F83D002028CD
:100AB0007FD11923012240492046009500F0FCFD1A
:100AC000002876D194F83C00012872D0012084F8E7
:100AD0003C0020680168C90703D1016841F00101A9
:100AE00001602068016821F400610160212084F820
:100AF0003D00402084F83E0000262664C4F824808F
:100B0000A4F82A90608D20852C48E062CDE900751C
:100B100053465A462046049900F04EFD70B930E025
:100B20002A463946204600F06DFE58B1206C042854
:100B300004D12068016841F400710160012007B010
:100B4000BDE8F08F606A216800780861606A401C27
:100B50006062218D491E89B22185628D521E628597
:100B600022685369DB435B070BD469B100781061DD
:100B7000606A401C6062208D401E2085608D401E92
:100B80006085208D0028CBD12A463946204600F0CA
:100B900067FD0028CAD154F83D0B016841F400718B
:100BA0000160202004F81E09E67766770020C6E77A
:100BB000FFE70220C3E70000020010000000FFFF73
:100BC00010B586B0044614216846FFF745FB14496A
:100BD0002068884221D113480021026842F00202B5
:100BE0000260006800F0020005904FF44070009031
:100BF0001220CDE9010103200390042004906946EE
:100C00000948FFF7E3FC07481030016841F4001180
:100C10000160006800F40010059006B010BD0000EF
:100C2000005400403038024000040240024881680D
:100C30000278114481607047100000200B4810B505
:100C4000016841F400710160016841F48061016054
:100C5000016841F480710160032000F06FF80F20FB
:100C600000F006F800F024F8002010BD003C02401F
:100C700070B50D4D04464FF47A712878B1FBF0F051
:100C80000A490968B1FBF0F000F00CFB48B9102CE0
:100C900007D200222146501E00F030F800206C6080
:100CA00070BD012070BD0000100000201C0000205D
:100CB0000A4808B5016841F480410160006800F409
:100CC000804000900548001F016841F0805101609C
:100CD000006800F08050009008BD000044380240D9
:100CE000002809DB00F01F0201219140400980002B
:100CF00000F1E020C0F8001170470000F0B40E4B86
:100D00001B680C46C3F30223C3F10705042D00D969
:100D10000425191D072901D2002300E0DB1E01264E
:100D200006FA05F1491E214099409E40761E164064
:100D30003143F0BC01F060B80CED00E0064900F072
:100D4000070208684FF6FF03184040EA0220034AF2
:100D500010430860704700000CED00E00000FA0549
:100D60002DE9F0470E46050065D0DFF81481D8F86C
:100D70000000F7B200F00700B04207D288F8007018
:100D8000D8F8000000F00700B04254D128683D4C6C
:100D9000810712D5400703D5206840F4E050206059
:100DA0002878000703D5206840F460402060206860
:100DB000A96820F0F000084320602878C0072DD0F3
:100DC000304968680839012812D0022813D0032856
:100DD00011D00968890700292DDA216821F0030163
:100DE00001432160FFF7F4FC814641F2883A0EE0AE
:100DF00009688903EFE709688901ECE7FFF7E8FC78
:100E0000A0EB0901514502D90320BDE8F087206815
:100E1000696800F00C00B0EB810FEFD1D8F800103A
:100E2000404601F00701B14207D90770006800F0A1
:100E30000700B04201D00120E7E72878400705D538
:100E40002068E96820F4E050084320602878000713
:100E500006D52068296920F4604040EAC10020607E
:100E600000F038F82168084AC1F30311515CC8400A
:100E70000649086006480068FFF7FAFE0020C4E74C
:100E8000003C0240083802407A2000081C00002084
:100E9000140000200448054900680968044AC1F3A9
:100EA0008221515CC84070471C0000200838024075
:100EB0008A2000080448054900680968044AC1F30B
:100EC0004231515CC84070471C0000200838024085
:100ED0008A200008154810B5006810F00C0214486C
:100EE00013D01449042A0FD0082A0ED10F4C241F06
:100EF0002268236802F03F025B0207D52068C0F336
:100F00008810A0FB010106E0084610BD2168C1F36E
:100F10008811A1FB00010023FFF766F92168C1F3E6
:100F20000141491C4900B0FBF1F010BD08380240F6
:100F30000024F40040787D012DE9F84F04006ED0C4
:100F40002078DFF84C93C007A9F104054AD009F1D5
:100F500004000168C1F38101012908D00068C0F3D1
:100F6000810002280AD1D9F80000400206D528687D
:100F7000800337D560680028E1D033E06068B0F5C1
:100F8000803F10D0B0F5A02F286810D020F480301A
:100F90002860286820F4802028606068A8B1FFF7E6
:100FA00017FC06460DE0286840F48030F4E740F472
:100FB00080202860F7E700BFFFF70AFC801B642849
:100FC00073D828688003F7D50CE0FFF701FC0646CC
:100FD00005E000BFFFF7FCFB801B6428F0D8286801
:100FE0008003F7D42078DFF8AC8280074FF0000A46
:100FF0003ED5A748001D016811F00C0F08D000680D
:10100000C0F3810002280BD1D9F80000400207D4B8
:101010002868800716D5E068012800D112E033E186
:10102000E068B8B10120C8F80000FFF7D1FB064620
:1010300005E000BFFFF7CCFB801B0228C0D8286862
:101040008007F7D52868216920F0F80040EAC10040
:1010500028600DE0C8F800A0FFF7BAFB064604E0E0
:10106000FFF7B6FB801B02281FD828688007F7D43B
:101070002078000722D5864F87486169703771B1A3
:1010800001210160FFF7A4FB064604E0FFF7A0FB87
:10109000801B022809D838688007F7D50EE0C0F811
:1010A00000A0FFF795FB064605E082E0FFF790FB06
:1010B000801B02287DD838688007F7D42078400745
:1010C00068D5DFF8CCB100270BF13C0BDBF8000052
:1010D000C0000BD4DBF8001041F08051CBF80010B9
:1010E000DBF80000012700F0805000906B4E306864
:1010F000C00510D4306840F480703060FFF768FBA2
:10110000009005E0FFF764FB0099401A022850D8D0
:101110003068C005F6D55E4EA0686C3601280FD049
:101120000528306810D020F001003060306820F0D1
:1011300004003060A068B8B1FFF74AFB00900FE0F0
:10114000306840F00100F4E740F004003060F7E759
:10115000FFF73EFB0099411A41F28830814266D880
:1011600030688007F4D50EE0FFF732FB009007E00F
:10117000FFF72EFB0099411A41F28830814256D880
:1011800030688007F4D42FB1DBF8001021F08051D3
:10119000CBF80010A069C8B33D49091D0968C1F327
:1011A000810102294AD00228504607D0C8F86000C1
:1011B00000E03CE0FFF70CFB04463BE04746C8F884
:1011C0006000FFF705FB064605E000BFFFF700FBE8
:1011D000801B02282BD828688001F7D4D4E90701A6
:1011E0000843A16A2E4A490802EB0141626A41EABA
:1011F0008211084394F82C1040EA0161C9F80010EC
:1012000001203866FFF7E4FA044606E03EE000BF3E
:10121000FFF7DEFA001B022809D828688001F7D5FD
:1012200034E000BFFFF7D4FA001B022802D90320E4
:10123000BDE8F88F28688001F4D427E00128F7D0B2
:10124000D9F80000E26900F4800191421CD1226AC1
:1012500000F03F01914217D147F6C071626A014028
:10126000B1EB821F10D1A26A4FF0FF3300F440317E
:1012700003EB5202B1EB024F06D194F82C1000F0B0
:101280007060B0EB016F01D00120D1E70020CFE703
:101290000438024000004742800E47420070004080
:1012A0000000FFFF10B5401EB0F1807F01D3012088
:1012B00010BD4FF0E02460610F21601700F09CFD2D
:1012C0000020A06107202061002010BD70B504003F
:1012D00004D094F84100002510B106E0012070BD53
:1012E00084F84050204600F023F8242084F8410080
:1012F0002068C16821F40051C160204600F0BCFCA8
:101300002068016921F4904101612068416921F060
:101310002A0141612068C16841F40051C1606564DF
:10132000202084F8410084F842006563002070BDED
:1013300010B586B0044614216846FEF78DFF1449A7
:101340002068884221D113480021026842F010022F
:101350000260006800F0100005900E481438026822
:1013600042F001020260006800F0010005904FF4B5
:10137000C06000900220CDE9010103200390072006
:10138000049069460448FFF721F906B010BD00003B
:101390000010014044380240000002402DE9F84F9F
:1013A000044690F842009A4616460D46202802D080
:1013B0000220BDE8F88FB5B1AEB1002060642221F3
:1013C00084F842102063FFF703FAA6858146E6857C
:1013D000A0684FF480582027404501D1206920B1F2
:1013E0002E46002529E00120E3E7002625E04B46B4
:1013F000002220212046CDF800A000F0C3FC18B147
:1014000084F842700320D4E726B1A06840451AD082
:1014100038B108E020684068C0F3080025F8020BE6
:1014200008E0206978B12068406800F07F0000BFC4
:1014300006F8010BE08D401EE085E08D0028D6D136
:1014400084F84270B5E720684068F1E72DE9F84379
:10145000044690F84100984616460D46202802D0D2
:101460000220BDE8F88385B17EB1002060642120B0
:1014700084F84100FFF7ACF9A6848146E684A068B1
:101480002027B0F5805F02D003E00120E9E7206962
:1014900010B12E4600250EE000260CE080212046EB
:1014A00000F070FCA8B9C6B116F8010B21684860BD
:1014B000E08C401EE084E08C4B464FF00002CDF8FB
:1014C00000800028EAD14FF04001204600F05AFC8D
:1014D00040B184F841700320C3E735F8020BC0F334
:1014E0000800E3E784F841700020BAE7FEE70168EE
:1014F0004A69D24352050FD46FF480624A610021D9
:1015000040F8301F202242738173026942F00402C6
:10151000026101730120704700207047F8B504464E
:10152000C06A1E460D461746082807D0012805D078
:1015300010F5803F02D0206B122804D1206801688A
:1015400041F480710160134600224FF001112046E2
:10155000009600F0B1F840B120680068C00502D5DF
:101560004FF4007020640320F8BD2069B0F5804F6F
:101570000ED00620216800EAD51040F0F000086186
:1015800033463A460B49204600F0DEF878B902E0CF
:1015900005F0FE0000E0E8B2216808610549334625
:1015A0003A46891F204600F0CFF80028DCD0012001
:1015B000F8BD0000080001002DE9F843044600686A
:1015C0000D46DDE9089701689846164641F480719A
:1015D00001604B4600224FF001112046009700F0B9
:1015E0006BF848B120680068C00502D54FF4007060
:1015F00020640320BDE8F883216805F0FE0008613F
:101600003B464A461549204600F09EF888B92068B6
:101610004169806900903A464946204600F0F2F858
:1016200048B1206C042804D12068016841F400719D
:1016300001600120DEE7F5B2B8F1010F09D02168A1
:10164000300A08613A464946204600F0DBF8002897
:10165000E7D1206805610020CCE70000020001000E
:1016600070B516460D4604461EE02046FFF73FFFC4
:1016700008B1012070BD681C16D0FFF7A9F8801BC7
:10168000A84200D885B920684069C04340070BD5FF
:10169000002044F8300F20216173A073216941F0CC
:1016A000200121612073E4E720684069C0434007BE
:1016B000DBD4002070BD00002DE9F04798461746A6
:1016C0000D460446C1F30746DDF820902AE000BF2E
:1016D000B8F1FF3F26D0FFF77BF8A0EB09014145A9
:1016E00002D8B8F1000F1DD12068012E16D08069F4
:1016F00025EA00000004000C12D00020B84211D1ED
:10170000002044F8300F20216173A073216941F05B
:101710002001216120730120BDE8F0874069E7E7DF
:101720000120EBE72068012E0AD0806925EA00003D
:101730000004000C06D00020B842C9D00020EBE71E
:101740004069F3E70120F7E72DE9F0479846164690
:101750000D4604464FF000094FF0200AC1F3074739
:1017600023E020684069C043400515D42068016823
:1017700041F40071016021686FF480604861C4F831
:10178000309084F83DA084F83E90216C41F0040133
:10179000216484F83C9021E0701C06D0FFF718F813
:1017A000A0EB0800B04203D816B1012F1FD021E0F2
:1017B0002068012F15D0806925EA00000004000C84
:1017C00018D000BF44F8309F84F80DA084F80E9024
:1017D000216941F02001216184F80C900120BDE8CD
:1017E000F087406925EA00000004000CEAD1206877
:1017F000406901E02068806925EA00000004000CCF
:10180000AFD1ECE770B516460D4604461EE0204603
:10181000FFF76DFE08B1012070BD681C16D0FEF701
:10182000D7FF801BA84200D885B920684069C04313
:1018300000060BD5002044F8300F20216173A073FF
:10184000216941F0200121612073E4E720684069AB
:10185000C0430006DBD4002070BD000070B586B028
:1018600014216846FEF7F8FC23480024016841F083
:1018700010010160016801F010010591016841F05B
:1018800020010160016801F020010591016841F02B
:1018900001010160016801F001010591016841F059
:1018A000020101600068154E00F002004FF4C065AF
:1018B0000590002229463046FEF785FF082000905B
:1018C0004FF44410CDE9010469460D48FEF77EFE51
:1018D00001200095CDE90104694630460394FEF7E6
:1018E00075FE002211460920FFF708FA0920FFF7CC
:1018F000F7F906B070BD0000303802400014024015
:10190000001002400D4810B50B4901600C494160C0
:1019100000214FF480428160C0E90312416181617E
:10192000C1610162FEF75AFF002803D0BDE81040F4
:10193000FEF732BE10BD0000005400409C000020A5
:10194000A08601000C4810B50A4901604FF4E1314E
:101950004160002181600C22C160C0E904128161F4
:10196000C161FFF7B3FC002803D0BDE81040FEF7CB
:1019700013BE10BD00100140F0000020FEE7FEE79E
:1019800010B5A0B0002480216846FEF765FC002158
:10199000204600F0A9F88021684600F0D9F8641CC0
:1019A000E4B2082CF3D320B010BD000010B502241F
:1019B000202000F0B9F8204600F0B6F81F48047067
:1019C0003F24A82000F0B0F8204600F0ADF8002435
:1019D000D32000F0A9F8204600F0A6F8402000F03F
:1019E000A3F8A12000F0A0F8C82000F09DF8002185
:1019F000084600F063F87F24812000F095F8204627
:101A000000F092F8A42000F08FF8A62000F08CF8E7
:101A1000D52000F089F8802000F086F88D2000F0B5
:101A200083F8142000F080F80021012000F046F82F
:101A3000BDE81040AF2000F077B800002000002083
:101A40002DE9F04117460E46044600250BE03146CD
:101A5000204600F00FF8641CE4B20F2C02D90024D9
:101A6000B61CF6B26D1C7A5D002AF0D12846BDE89E
:101A7000F081000070B51646C206150E0C46072907
:101A800018D80F2816D82946204600F02DF80A4805
:101A9000082100EB0610064600F05AF8641CE0B27C
:101AA000294600F021F806F10800BDE87040082141
:101AB00000F04EB870BD00009220000870B50C46D2
:101AC000050001D0012D0ED10CB1012C0BD1DA2073
:101AD00000F02AF8280100EB4410BDE87040801C9B
:101AE000C0B200F021B870BD70B50E4D0C4629781B
:101AF000022905D1072803D8B030C0B200F014F88D
:101B0000287802280CD17F2C0AD804F00F0000F0AE
:101B10000BF8102000EB1410BDE8704000F004B882
:101B200070BD0000200000201CB500218DF80410BD
:101B30008DF805004FF4FA7000900448022301AAC2
:101B400078214068FEF70EFF1CBD00002000002039
:101B50000EB54FF4FA728DE80700044801234022C5
:101B600078214068FEF794FF0EBD000020000020A1
:101B70007047704710B5FFF759F8BDE8104000F006
:101B80007FB9000030B593B030216846FEF764FBA2
:101B900014210CA8FEF760FB1D480025016841F0E8
:101BA00080510160006800F0805011901948016870
:101BB00041F4804101600068022400F480401190EB
:101BC0000120039010200490009406940820CDE991
:101BD0000750A820CDE9090404200B906846FFF7C0
:101BE000ABF908B172B6FEE70CA90F2081E831000D
:101BF0004FF4A0500F904FF48050109005210CA886
:101C0000FFF7AEF8002801D072B6FEE713B030BD82
:101C100040380240007000400248016841F4700101
:101C20000160704788ED00E001680C3151E8002F39
:101C300022F4907241E80023002BF5D101681431A1
:101C400051E8002F22F0010241E80023002BF5D1DA
:101C5000016B012909D101680C3151E8002F22F0F4
:101C6000100241E80023002BF5D1202180F842101A
:101C7000002101637047000070B5044600680169E7
:101C8000E26821F44051114301612169A068E269D1
:101C900008436169114308432168CA6849F20C632B
:101CA0009A430243CA6020684169A26921F44071E5
:101CB0001143416131492068884202D0304988424D
:101CC00002D1FFF7F7F801E0FFF7E4F8E26900233B
:101CD000192164253226B2F5004F626828D0A0FB96
:101CE0000101930F9200FEF77FFA0146B0FBF5F079
:101CF0006FF01802504301EB800006EB0010B0FBC0
:101D0000F5F000F0F002B1FBF5F002EB0012B1FBD0
:101D1000F5F06FF01803584301EB800006EB00105C
:101D2000B0FBF5F000F00F0021681044886070BD32
:101D3000A0FB010192185B41FEF756FA0146B0FB89
:101D4000F5F00201B1FBF5F06FF01803584301EB19
:101D5000800006EBC000B0FBF5F000F0F80002EBED
:101D60004002B1FBF5F0584301EB800006EBC000E8
:101D7000B0FBF5F000F00700D6E7000000100140CE
:101D8000001401402DE9F843984617460D460446D5
:101D9000089E24E0701C22D0FEF71AFDA0EB08007C
:101DA000B0421AD8CEB12068C168490717D5802D36
:101DB00015D0402D13D00168C94309070FD401681D
:101DC0000025406800902046FFF72EFF0820606441
:101DD00084F840500120BDE8F8830320FBE7206829
:101DE000006835EA000004D00020B842D2D00020BC
:101DF000F1E70120F9E7FEE70907090E002804DBF7
:101E000000F1E02080F80014704700F00F0000F1AE
:101E1000E02080F8141D704702E008C8121F08C1B6
:101E2000002AFAD170477047002001E001C1121F5B
:101E3000002AFBD1704700000EB55A228DF8002011
:101E4000562202920DF800109DF8001006A000F036
:101E5000DFF808A000F006F907A0029900F0D8F812
:101E600004A000F0FFF80EBD6275665B305D203D9A
:101E7000200000000A0000006120697320000000BB
:101E800010B5FEF7A5FC05490A68904204D3D1E9D4
:101E90000101BDE81040084710BD0000040000200B
:101EA000002343600360C0E90212704710B5426826
:101EB00084681346521C944200D100220468944264
:101EC00004D0C468E1544260002010BD4FF0FF30E0
:101ED00010BD00000B4810B50168491C016009499C
:101EE0004FF0FF30091D086008210748FEF766FC27
:101EF00028B18121BDE810400448FFF7D7BF012178
:101F0000F8E7000000000020001002408C000020D4
:101F100008B5FEF7E5F92AA42EA5FEF78FFEFFF718
:101F200031FE324A642102F16400FFF7B9FFFFF786
:101F300095FCFFF7E7FCFFF705FDFFF737FDFFF71F
:101F40001FFD00212AA20846FFF77AFD2BA20221DD
:101F50000020FFF775FD2046FEF789F982B24FF4A5
:101F60007A76334621462848FFF770FA4121082047
:101F7000FFF762FFFEF708FB34462846FEF777F9C5
:101F800082B2234629462048FFF760FA64230122E3
:101F900069461D48FFF702FA0028F7D19DF80000B6
:101FA0002346401C8DF80000012269461648FFF7C1
:101FB0004DFA2346022215A11348FFF747FADCE742
:101FC0007777772E31303061736B2E6E65740D0A22
:101FD00000000000506C6561736520656E74657269
:101FE000206120636861723A200D0A0028000020F9
:101FF000436E7420202020203A2000004B65792079
:1020000076616C203A200000F00000200D0A0000EC
:1020100010B50C4600F026F82046BDE8104000F050
:1020200009B8000002490A681206FCD548607047EA
:102030000010014070B5054609A000F013F8072410
:10204000A00025FA00F000F00F00092801D8303078
:1020500000E03730FFF7E6FF641EF1D570BD0000E9
:102060003078000010B5044603E000BFFFF7DAFF48
:10207000641C20780028F9D110BD00000000000089
:102080000000010203040607080900000000010225
:102090000304000000000000000000000000000039
:1020A000000000FE020202020202003F2020202067
:1020B00020200000000000000000000000000000E0
:1020C000000000FE020202020202003F2020202047
:1020D000202000FE020202020202003F20202020F7
:1020E000202000FE020202020202003F20202020E7
:1020F000202000FE020202020202003F20202020D7
:10210000202000FE020202020202003F20202020C6
:10211000202000FE020202020202003F20202020B6
:10212000202000000000000000000000000000006F
:10213000000000000000000000000000000000009F
:10214000000000000000000000000000000000008F
:10215000000000FE020202020202003F20202020B6
:10216000202000FE020202020202003F2020202066
:10217000202000FE020202020202003F2020202056
:10218000202000FE020202020202003F2020202046
:10219000202000FE020202020202003F2020202036
:1021A000202000FE020202020202003F2020202026
:1021B000202000FE020202020202003F2020202016
:1021C000202000FE020202020202003F2020202006
:1021D000202000FE020202020202003F20202020F6
:1021E000202000FE020202020202003F20202020E6
:1021F000202000FE020202020202003F20202020D6
:10220000202000FE020202020202003F20202020C5
:10221000202000FE020202020202003F20202020B5
:10222000202000FE020202020202003F20202020A5
:10223000202000FE020202020202003F2020202095
:10224000202000FE020202020202003F2020202085
:10225000202000000000000000000000000000003E
:10226000000000000000000000000000000000006E
:10227000000000000000000000000000000000005E
:10228000000000000000000000000000000000004E
:10229000000000000000000000000000000000003E
:1022A0000000000000F80000000000000033000003
:1022B000000000100C02100C0200000000000000E2
:1022C00000000040C07840C0780000043F04043F94
:1022D000040000708888FC08300000182020FF21CE
:1022E0001E00F008F0806018000000310C031E2171
:1022F0001E0000F00888700000001E21232C192702
:10230000211000120E00000000000000000000007C
:102310000000000000E01804020000000007182080
:10232000400000020418E0000000004020180700F0
:102330000000404080F0804040000202010F010296
:10234000020000000000E0000000000101010F0198
:10235000010100000000000000000090700000007B
:102360000000000000000000000000010101010168
:1023700001000000000000000000003030000000FC
:10238000000000000000C0380400006018070000D2
:10239000000000E010080810E000000F10202010DE
:1023A0000F0000001010F8000000000020203F2067
:1023B0002000007008080808F000003028242221BE
:1023C0003000003008080888700000182021212201
:1023D0001C000000804030F8000000060524243F67
:1023E000242400F88888880808000019202020117B
:1023F0000E0000E0108888900000000F11202020BF
:102400001F0000180808886818000000003E01003E
:1024100000000070880808887000001C222121221A
:102420001C0000F008080810E00000011222221130
:102430000F00000000C0C0000000000000303000AD
:1024400000000000008000000000000000E000002C
:102450000000000080402010080000010204081065
:1024600020000040404040404000000202020202C2
:102470000200000810204080000000201008040224
:102480000100007048080888700000000030370024
:102490000000C030C828E810E000071827282F28BF
:1024A00017000000C038E0000000203C2302022793
:1024B000382008F8888888700000203F20202011EC
:1024C0000E00C03008080808380007182020201027
:1024D000080008F808080810E000203F202020101D
:1024E0000F0008F88888E8081000203F20202320EB
:1024F000180008F88888E8081000203F2000030032
:102500000000C03008080838000007182020221EEC
:10251000020008F808000008F808203F2101012106
:102520003F20000808F8080800000020203F202075
:10253000000000000808F8080800C08080807F00C4
:10254000000008F888C028180800203F200126381D
:10255000200008F8080000000000203F2020202074
:10256000300008F8F800F8F80800203F013E013F6D
:10257000200008F830C00008F808203F20000718A5
:102580003F00E01008080810E0000F102020201085
:102590000F0008F808080808F000203F2101010199
:1025A0000000E01008080810E0000F102828305044
:1025B0004F0008F8888888887000203F2000030CAE
:1025C00030200070880808083800003820212122B7
:1025D0001C00180808F8080818000000203F200018
:1025E000000008F808000008F808001F202020203C
:1025F0001F000878880000C83808000007380E015E
:10260000000008F800F800F8080000033E013E034F
:102610000000081868808068180820302C03032CFC
:1026200030200838C800C83808000000203F2000CB
:10263000000010080808C83808002038262120208B
:102640001800000000FE020202000000007F40406F
:102650004000000438C000000000000000010638FF
:10266000C00000020202FE000000004040407F0067
:10267000000000000402020400000000000000004E
:10268000000000000000000000008080808080804A
:102690008080000202040000000000000000000032
:1026A0000000000080808000000000192424123FF8
:1026B000200010F0008080000000003F1120201159
:1026C0000E000000008080800000000E11202020FD
:1026D0001100000080808090F000001F202020105A
:1026E0003F200000808080800000001F24242424DC
:1026F0001700008080E0909020000020203F2020E4
:1027000000000000808080808000006B949494938F
:10271000600010F0008080800000203F2100002039
:102720003F2000809898000000000020203F2020DB
:102730000000000000809898000000C08080807F2A
:10274000000010F0000080808000203F2406293027
:102750002000001010F8000000000020203F202082
:1027600000008080808080808000203F20003F200B
:10277000003F8080008080800000203F21000020FA
:102780003F200000808080800000001F202020204B
:102790001F00808000808000000080FF91202011B9
:1027A0000E000000008080008000000E11202091AB
:1027B000FF80808080008080800020203F212000DA
:1027C00001000000808080808000003324242424C5
:1027D0001900008080E0808000000000001F2020A1
:1027E00010008080000000808000001F202020104A
:1027F0003F20808080008080800000030C300C032C
:1028000000008080008080008080010E300C07383E
:10281000060100808080008080000020310E2E3173
:1028200020008080800000808080008186781806EB
:10283000010000808080808080000021302C2221D7
:1028400030000000000000FC020200000000013E19
:10285000404000000000FF00000000000000FF00FA
:1028600000000202FC000000000040403E010000A9
:10287000000000020102020402000000000000004B
:102880000000000000000000000000000000000048
:1028900000000000B428000800000020280000000C
:1028A000181E0008DC280008280000201005000081
:1028B000281E000800000000FFFFFFFF00000000CE
:1028C000D51E0008010000001000000000000000FC
:0C28D0000024F400020000009C00002026
:040000050800018965
:00000001FF
